{
  "contractName": "LuxyToken",
  "abi": [
    {
      "inputs": [
        {
          "internalType": "uint32",
          "name": "_size",
          "type": "uint32"
        },
        {
          "internalType": "string",
          "name": "_name",
          "type": "string"
        },
        {
          "internalType": "string",
          "name": "_symbol",
          "type": "string"
        },
        {
          "internalType": "string",
          "name": "_uri",
          "type": "string"
        }
      ],
      "stateMutability": "nonpayable",
      "type": "constructor"
    },
    {
      "anonymous": false,
      "inputs": [
        {
          "indexed": true,
          "internalType": "address",
          "name": "owner",
          "type": "address"
        },
        {
          "indexed": true,
          "internalType": "address",
          "name": "approved",
          "type": "address"
        },
        {
          "indexed": true,
          "internalType": "uint256",
          "name": "tokenId",
          "type": "uint256"
        }
      ],
      "name": "Approval",
      "type": "event"
    },
    {
      "anonymous": false,
      "inputs": [
        {
          "indexed": true,
          "internalType": "address",
          "name": "owner",
          "type": "address"
        },
        {
          "indexed": true,
          "internalType": "address",
          "name": "operator",
          "type": "address"
        },
        {
          "indexed": false,
          "internalType": "bool",
          "name": "approved",
          "type": "bool"
        }
      ],
      "name": "ApprovalForAll",
      "type": "event"
    },
    {
      "anonymous": false,
      "inputs": [
        {
          "indexed": true,
          "internalType": "address",
          "name": "previousOwner",
          "type": "address"
        },
        {
          "indexed": true,
          "internalType": "address",
          "name": "newOwner",
          "type": "address"
        }
      ],
      "name": "OwnershipTransferred",
      "type": "event"
    },
    {
      "anonymous": false,
      "inputs": [
        {
          "indexed": true,
          "internalType": "address",
          "name": "from",
          "type": "address"
        },
        {
          "indexed": true,
          "internalType": "address",
          "name": "to",
          "type": "address"
        },
        {
          "indexed": true,
          "internalType": "uint256",
          "name": "tokenId",
          "type": "uint256"
        }
      ],
      "name": "Transfer",
      "type": "event"
    },
    {
      "inputs": [
        {
          "internalType": "address",
          "name": "to",
          "type": "address"
        },
        {
          "internalType": "uint256",
          "name": "tokenId",
          "type": "uint256"
        }
      ],
      "name": "approve",
      "outputs": [],
      "stateMutability": "nonpayable",
      "type": "function"
    },
    {
      "inputs": [
        {
          "internalType": "address",
          "name": "owner",
          "type": "address"
        }
      ],
      "name": "balanceOf",
      "outputs": [
        {
          "internalType": "uint256",
          "name": "",
          "type": "uint256"
        }
      ],
      "stateMutability": "view",
      "type": "function"
    },
    {
      "inputs": [
        {
          "internalType": "uint256",
          "name": "tokenId",
          "type": "uint256"
        }
      ],
      "name": "getApproved",
      "outputs": [
        {
          "internalType": "address",
          "name": "",
          "type": "address"
        }
      ],
      "stateMutability": "view",
      "type": "function"
    },
    {
      "inputs": [
        {
          "internalType": "address",
          "name": "owner",
          "type": "address"
        },
        {
          "internalType": "address",
          "name": "operator",
          "type": "address"
        }
      ],
      "name": "isApprovedForAll",
      "outputs": [
        {
          "internalType": "bool",
          "name": "",
          "type": "bool"
        }
      ],
      "stateMutability": "view",
      "type": "function"
    },
    {
      "inputs": [],
      "name": "name",
      "outputs": [
        {
          "internalType": "string",
          "name": "",
          "type": "string"
        }
      ],
      "stateMutability": "view",
      "type": "function"
    },
    {
      "inputs": [],
      "name": "owner",
      "outputs": [
        {
          "internalType": "address",
          "name": "",
          "type": "address"
        }
      ],
      "stateMutability": "view",
      "type": "function"
    },
    {
      "inputs": [
        {
          "internalType": "uint256",
          "name": "tokenId",
          "type": "uint256"
        }
      ],
      "name": "ownerOf",
      "outputs": [
        {
          "internalType": "address",
          "name": "",
          "type": "address"
        }
      ],
      "stateMutability": "view",
      "type": "function"
    },
    {
      "inputs": [],
      "name": "renounceOwnership",
      "outputs": [],
      "stateMutability": "nonpayable",
      "type": "function"
    },
    {
      "inputs": [
        {
          "internalType": "address",
          "name": "from",
          "type": "address"
        },
        {
          "internalType": "address",
          "name": "to",
          "type": "address"
        },
        {
          "internalType": "uint256",
          "name": "tokenId",
          "type": "uint256"
        }
      ],
      "name": "safeTransferFrom",
      "outputs": [],
      "stateMutability": "nonpayable",
      "type": "function"
    },
    {
      "inputs": [
        {
          "internalType": "address",
          "name": "from",
          "type": "address"
        },
        {
          "internalType": "address",
          "name": "to",
          "type": "address"
        },
        {
          "internalType": "uint256",
          "name": "tokenId",
          "type": "uint256"
        },
        {
          "internalType": "bytes",
          "name": "data",
          "type": "bytes"
        }
      ],
      "name": "safeTransferFrom",
      "outputs": [],
      "stateMutability": "nonpayable",
      "type": "function"
    },
    {
      "inputs": [
        {
          "internalType": "address",
          "name": "operator",
          "type": "address"
        },
        {
          "internalType": "bool",
          "name": "approved",
          "type": "bool"
        }
      ],
      "name": "setApprovalForAll",
      "outputs": [],
      "stateMutability": "nonpayable",
      "type": "function"
    },
    {
      "inputs": [],
      "name": "size",
      "outputs": [
        {
          "internalType": "uint32",
          "name": "",
          "type": "uint32"
        }
      ],
      "stateMutability": "view",
      "type": "function"
    },
    {
      "inputs": [
        {
          "internalType": "bytes4",
          "name": "interfaceId",
          "type": "bytes4"
        }
      ],
      "name": "supportsInterface",
      "outputs": [
        {
          "internalType": "bool",
          "name": "",
          "type": "bool"
        }
      ],
      "stateMutability": "view",
      "type": "function"
    },
    {
      "inputs": [],
      "name": "symbol",
      "outputs": [
        {
          "internalType": "string",
          "name": "",
          "type": "string"
        }
      ],
      "stateMutability": "view",
      "type": "function"
    },
    {
      "inputs": [
        {
          "internalType": "uint256",
          "name": "tokenId",
          "type": "uint256"
        }
      ],
      "name": "tokenURI",
      "outputs": [
        {
          "internalType": "string",
          "name": "",
          "type": "string"
        }
      ],
      "stateMutability": "view",
      "type": "function"
    },
    {
      "inputs": [
        {
          "internalType": "address",
          "name": "from",
          "type": "address"
        },
        {
          "internalType": "address",
          "name": "to",
          "type": "address"
        },
        {
          "internalType": "uint256",
          "name": "tokenId",
          "type": "uint256"
        }
      ],
      "name": "transferFrom",
      "outputs": [],
      "stateMutability": "nonpayable",
      "type": "function"
    },
    {
      "inputs": [
        {
          "internalType": "address",
          "name": "newOwner",
          "type": "address"
        }
      ],
      "name": "transferOwnership",
      "outputs": [],
      "stateMutability": "nonpayable",
      "type": "function"
    }
  ],
  "bytecode": "0x60806040523480156200001157600080fd5b506040516200346c3803806200346c833981810160405281019062000037919062000955565b8282816000908051906020019062000051929190620006c7565b5080600190805190602001906200006a929190620006c7565b5050506200008d620000816200012a60201b60201c565b6200013260201b60201c565b8060099080519060200190620000a5929190620006c7565b5083600860006101000a81548163ffffffff021916908363ffffffff16021790555060005b600860009054906101000a900463ffffffff1663ffffffff168163ffffffff1610156200011f5762000109338263ffffffff16620001f860201b60201c565b8080620001169062000a53565b915050620000ca565b505050505062000e72565b600033905090565b6000600660009054906101000a900473ffffffffffffffffffffffffffffffffffffffff16905081600660006101000a81548173ffffffffffffffffffffffffffffffffffffffff021916908373ffffffffffffffffffffffffffffffffffffffff1602179055508173ffffffffffffffffffffffffffffffffffffffff168173ffffffffffffffffffffffffffffffffffffffff167f8be0079c531659141344cd1fd0a4f28419497f9722a3daafe3b4186f6b6457e060405160405180910390a35050565b6200021a8282604051806020016040528060008152506200021e60201b60201c565b5050565b6200023083836200028c60201b60201c565b6200024560008484846200048560201b60201c565b62000287576040517f08c379a00000000000000000000000000000000000000000000000000000000081526004016200027e9062000b0b565b60405180910390fd5b505050565b600073ffffffffffffffffffffffffffffffffffffffff168273ffffffffffffffffffffffffffffffffffffffff1603620002fe576040517f08c379a0000000000000000000000000000000000000000000000000000000008152600401620002f59062000b7d565b60405180910390fd5b6200030f816200062e60201b60201c565b1562000352576040517f08c379a0000000000000000000000000000000000000000000000000000000008152600401620003499062000bef565b60405180910390fd5b62000366600083836200069a60201b60201c565b6001600360008473ffffffffffffffffffffffffffffffffffffffff1673ffffffffffffffffffffffffffffffffffffffff1681526020019081526020016000206000828254620003b8919062000c1b565b92505081905550816002600083815260200190815260200160002060006101000a81548173ffffffffffffffffffffffffffffffffffffffff021916908373ffffffffffffffffffffffffffffffffffffffff160217905550808273ffffffffffffffffffffffffffffffffffffffff16600073ffffffffffffffffffffffffffffffffffffffff167fddf252ad1be2c89b69c2b068fc378daa952ba7f163c4a11628f55a4df523b3ef60405160405180910390a462000481600083836200069f60201b60201c565b5050565b6000620004b38473ffffffffffffffffffffffffffffffffffffffff16620006a460201b62000af01760201c565b1562000621578373ffffffffffffffffffffffffffffffffffffffff1663150b7a02620004e56200012a60201b60201c565b8786866040518563ffffffff1660e01b815260040162000509949392919062000d2b565b6020604051808303816000875af19250505080156200054857506040513d601f19601f8201168201806040525081019062000545919062000ddc565b60015b620005d0573d80600081146200057b576040519150601f19603f3d011682016040523d82523d6000602084013e62000580565b606091505b506000815103620005c8576040517f08c379a0000000000000000000000000000000000000000000000000000000008152600401620005bf9062000b0b565b60405180910390fd5b805181602001fd5b63150b7a0260e01b7bffffffffffffffffffffffffffffffffffffffffffffffffffffffff1916817bffffffffffffffffffffffffffffffffffffffffffffffffffffffff19161491505062000626565b600190505b949350505050565b60008073ffffffffffffffffffffffffffffffffffffffff166002600084815260200190815260200160002060009054906101000a900473ffffffffffffffffffffffffffffffffffffffff1673ffffffffffffffffffffffffffffffffffffffff1614159050919050565b505050565b505050565b6000808273ffffffffffffffffffffffffffffffffffffffff163b119050919050565b828054620006d59062000e3d565b90600052602060002090601f016020900481019282620006f9576000855562000745565b82601f106200071457805160ff191683800117855562000745565b8280016001018555821562000745579182015b828111156200074457825182559160200191906001019062000727565b5b50905062000754919062000758565b5090565b5b808211156200077357600081600090555060010162000759565b5090565b6000604051905090565b600080fd5b600080fd5b600063ffffffff82169050919050565b620007a6816200078b565b8114620007b257600080fd5b50565b600081519050620007c6816200079b565b92915050565b600080fd5b600080fd5b6000601f19601f8301169050919050565b7f4e487b7100000000000000000000000000000000000000000000000000000000600052604160045260246000fd5b6200082182620007d6565b810181811067ffffffffffffffff82111715620008435762000842620007e7565b5b80604052505050565b60006200085862000777565b905062000866828262000816565b919050565b600067ffffffffffffffff821115620008895762000888620007e7565b5b6200089482620007d6565b9050602081019050919050565b60005b83811015620008c1578082015181840152602081019050620008a4565b83811115620008d1576000848401525b50505050565b6000620008ee620008e8846200086b565b6200084c565b9050828152602081018484840111156200090d576200090c620007d1565b5b6200091a848285620008a1565b509392505050565b600082601f8301126200093a5762000939620007cc565b5b81516200094c848260208601620008d7565b91505092915050565b6000806000806080858703121562000972576200097162000781565b5b60006200098287828801620007b5565b945050602085015167ffffffffffffffff811115620009a657620009a562000786565b5b620009b48782880162000922565b935050604085015167ffffffffffffffff811115620009d857620009d762000786565b5b620009e68782880162000922565b925050606085015167ffffffffffffffff81111562000a0a5762000a0962000786565b5b62000a188782880162000922565b91505092959194509250565b7f4e487b7100000000000000000000000000000000000000000000000000000000600052601160045260246000fd5b600062000a60826200078b565b915063ffffffff820362000a795762000a7862000a24565b5b600182019050919050565b600082825260208201905092915050565b7f4552433732313a207472616e7366657220746f206e6f6e20455243373231526560008201527f63656976657220696d706c656d656e7465720000000000000000000000000000602082015250565b600062000af360328362000a84565b915062000b008262000a95565b604082019050919050565b6000602082019050818103600083015262000b268162000ae4565b9050919050565b7f4552433732313a206d696e7420746f20746865207a65726f2061646472657373600082015250565b600062000b6560208362000a84565b915062000b728262000b2d565b602082019050919050565b6000602082019050818103600083015262000b988162000b56565b9050919050565b7f4552433732313a20746f6b656e20616c7265616479206d696e74656400000000600082015250565b600062000bd7601c8362000a84565b915062000be48262000b9f565b602082019050919050565b6000602082019050818103600083015262000c0a8162000bc8565b9050919050565b6000819050919050565b600062000c288262000c11565b915062000c358362000c11565b9250827fffffffffffffffffffffffffffffffffffffffffffffffffffffffffffffffff0382111562000c6d5762000c6c62000a24565b5b828201905092915050565b600073ffffffffffffffffffffffffffffffffffffffff82169050919050565b600062000ca58262000c78565b9050919050565b62000cb78162000c98565b82525050565b62000cc88162000c11565b82525050565b600081519050919050565b600082825260208201905092915050565b600062000cf78262000cce565b62000d03818562000cd9565b935062000d15818560208601620008a1565b62000d2081620007d6565b840191505092915050565b600060808201905062000d42600083018762000cac565b62000d51602083018662000cac565b62000d60604083018562000cbd565b818103606083015262000d74818462000cea565b905095945050505050565b60007fffffffff0000000000000000000000000000000000000000000000000000000082169050919050565b62000db68162000d7f565b811462000dc257600080fd5b50565b60008151905062000dd68162000dab565b92915050565b60006020828403121562000df55762000df462000781565b5b600062000e058482850162000dc5565b91505092915050565b7f4e487b7100000000000000000000000000000000000000000000000000000000600052602260045260246000fd5b6000600282049050600182168062000e5657607f821691505b60208210810362000e6c5762000e6b62000e0e565b5b50919050565b6125ea8062000e826000396000f3fe608060405234801561001057600080fd5b506004361061010b5760003560e01c8063715018a6116100a2578063a22cb46511610071578063a22cb465146102a6578063b88d4fde146102c2578063c87b56dd146102de578063e985e9c51461030e578063f2fde38b1461033e5761010b565b8063715018a6146102425780638da5cb5b1461024c578063949d225d1461026a57806395d89b41146102885761010b565b806323b872dd116100de57806323b872dd146101aa57806342842e0e146101c65780636352211e146101e257806370a08231146102125761010b565b806301ffc9a71461011057806306fdde0314610140578063081812fc1461015e578063095ea7b31461018e575b600080fd5b61012a600480360381019061012591906116eb565b61035a565b6040516101379190611733565b60405180910390f35b61014861043c565b60405161015591906117e7565b60405180910390f35b6101786004803603810190610173919061183f565b6104ce565b60405161018591906118ad565b60405180910390f35b6101a860048036038101906101a391906118f4565b610514565b005b6101c460048036038101906101bf9190611934565b61062b565b005b6101e060048036038101906101db9190611934565b61068b565b005b6101fc60048036038101906101f7919061183f565b6106ab565b60405161020991906118ad565b60405180910390f35b61022c60048036038101906102279190611987565b61075c565b60405161023991906119c3565b60405180910390f35b61024a610813565b005b610254610827565b60405161026191906118ad565b60405180910390f35b610272610851565b60405161027f91906119fd565b60405180910390f35b610290610867565b60405161029d91906117e7565b60405180910390f35b6102c060048036038101906102bb9190611a44565b6108f9565b005b6102dc60048036038101906102d79190611bb9565b61090f565b005b6102f860048036038101906102f3919061183f565b610971565b60405161030591906117e7565b60405180910390f35b61032860048036038101906103239190611c3c565b6109d9565b6040516103359190611733565b60405180910390f35b61035860048036038101906103539190611987565b610a6d565b005b60007f80ac58cd000000000000000000000000000000000000000000000000000000007bffffffffffffffffffffffffffffffffffffffffffffffffffffffff1916827bffffffffffffffffffffffffffffffffffffffffffffffffffffffff1916148061042557507f5b5e139f000000000000000000000000000000000000000000000000000000007bffffffffffffffffffffffffffffffffffffffffffffffffffffffff1916827bffffffffffffffffffffffffffffffffffffffffffffffffffffffff1916145b80610435575061043482610b13565b5b9050919050565b60606000805461044b90611cab565b80601f016020809104026020016040519081016040528092919081815260200182805461047790611cab565b80156104c45780601f10610499576101008083540402835291602001916104c4565b820191906000526020600020905b8154815290600101906020018083116104a757829003601f168201915b5050505050905090565b60006104d982610b7d565b6004600083815260200190815260200160002060009054906101000a900473ffffffffffffffffffffffffffffffffffffffff169050919050565b600061051f826106ab565b90508073ffffffffffffffffffffffffffffffffffffffff168373ffffffffffffffffffffffffffffffffffffffff160361058f576040517f08c379a000000000000000000000000000000000000000000000000000000000815260040161058690611d4e565b60405180910390fd5b8073ffffffffffffffffffffffffffffffffffffffff166105ae610bc8565b73ffffffffffffffffffffffffffffffffffffffff1614806105dd57506105dc816105d7610bc8565b6109d9565b5b61061c576040517f08c379a000000000000000000000000000000000000000000000000000000000815260040161061390611de0565b60405180910390fd5b6106268383610bd0565b505050565b61063c610636610bc8565b82610c89565b61067b576040517f08c379a000000000000000000000000000000000000000000000000000000000815260040161067290611e72565b60405180910390fd5b610686838383610d1e565b505050565b6106a68383836040518060200160405280600081525061090f565b505050565b6000806002600084815260200190815260200160002060009054906101000a900473ffffffffffffffffffffffffffffffffffffffff169050600073ffffffffffffffffffffffffffffffffffffffff168173ffffffffffffffffffffffffffffffffffffffff1603610753576040517f08c379a000000000000000000000000000000000000000000000000000000000815260040161074a90611ede565b60405180910390fd5b80915050919050565b60008073ffffffffffffffffffffffffffffffffffffffff168273ffffffffffffffffffffffffffffffffffffffff16036107cc576040517f08c379a00000000000000000000000000000000000000000000000000000000081526004016107c390611f70565b60405180910390fd5b600360008373ffffffffffffffffffffffffffffffffffffffff1673ffffffffffffffffffffffffffffffffffffffff168152602001908152602001600020549050919050565b61081b610f84565b6108256000611002565b565b6000600660009054906101000a900473ffffffffffffffffffffffffffffffffffffffff16905090565b600860009054906101000a900463ffffffff1681565b60606001805461087690611cab565b80601f01602080910402602001604051908101604052809291908181526020018280546108a290611cab565b80156108ef5780601f106108c4576101008083540402835291602001916108ef565b820191906000526020600020905b8154815290600101906020018083116108d257829003601f168201915b5050505050905090565b61090b610904610bc8565b83836110c8565b5050565b61092061091a610bc8565b83610c89565b61095f576040517f08c379a000000000000000000000000000000000000000000000000000000000815260040161095690611e72565b60405180910390fd5b61096b84848484611234565b50505050565b606061097c82610b7d565b6000610986611290565b905060008151116109a657604051806020016040528060008152506109d1565b806109b084611322565b6040516020016109c1929190611fcc565b6040516020818303038152906040525b915050919050565b6000600560008473ffffffffffffffffffffffffffffffffffffffff1673ffffffffffffffffffffffffffffffffffffffff16815260200190815260200160002060008373ffffffffffffffffffffffffffffffffffffffff1673ffffffffffffffffffffffffffffffffffffffff16815260200190815260200160002060009054906101000a900460ff16905092915050565b610a75610f84565b600073ffffffffffffffffffffffffffffffffffffffff168173ffffffffffffffffffffffffffffffffffffffff1603610ae4576040517f08c379a0000000000000000000000000000000000000000000000000000000008152600401610adb90612062565b60405180910390fd5b610aed81611002565b50565b6000808273ffffffffffffffffffffffffffffffffffffffff163b119050919050565b60007f01ffc9a7000000000000000000000000000000000000000000000000000000007bffffffffffffffffffffffffffffffffffffffffffffffffffffffff1916827bffffffffffffffffffffffffffffffffffffffffffffffffffffffff1916149050919050565b610b8681611482565b610bc5576040517f08c379a0000000000000000000000000000000000000000000000000000000008152600401610bbc90611ede565b60405180910390fd5b50565b600033905090565b816004600083815260200190815260200160002060006101000a81548173ffffffffffffffffffffffffffffffffffffffff021916908373ffffffffffffffffffffffffffffffffffffffff160217905550808273ffffffffffffffffffffffffffffffffffffffff16610c43836106ab565b73ffffffffffffffffffffffffffffffffffffffff167f8c5be1e5ebec7d5bd14f71427d1e84f3dd0314c0f7b2291e5b200ac8c7c3b92560405160405180910390a45050565b600080610c95836106ab565b90508073ffffffffffffffffffffffffffffffffffffffff168473ffffffffffffffffffffffffffffffffffffffff161480610cd75750610cd681856109d9565b5b80610d1557508373ffffffffffffffffffffffffffffffffffffffff16610cfd846104ce565b73ffffffffffffffffffffffffffffffffffffffff16145b91505092915050565b8273ffffffffffffffffffffffffffffffffffffffff16610d3e826106ab565b73ffffffffffffffffffffffffffffffffffffffff1614610d94576040517f08c379a0000000000000000000000000000000000000000000000000000000008152600401610d8b906120f4565b60405180910390fd5b600073ffffffffffffffffffffffffffffffffffffffff168273ffffffffffffffffffffffffffffffffffffffff1603610e03576040517f08c379a0000000000000000000000000000000000000000000000000000000008152600401610dfa90612186565b60405180910390fd5b610e0e8383836114ee565b610e19600082610bd0565b6001600360008573ffffffffffffffffffffffffffffffffffffffff1673ffffffffffffffffffffffffffffffffffffffff1681526020019081526020016000206000828254610e6991906121d5565b925050819055506001600360008473ffffffffffffffffffffffffffffffffffffffff1673ffffffffffffffffffffffffffffffffffffffff1681526020019081526020016000206000828254610ec09190612209565b92505081905550816002600083815260200190815260200160002060006101000a81548173ffffffffffffffffffffffffffffffffffffffff021916908373ffffffffffffffffffffffffffffffffffffffff160217905550808273ffffffffffffffffffffffffffffffffffffffff168473ffffffffffffffffffffffffffffffffffffffff167fddf252ad1be2c89b69c2b068fc378daa952ba7f163c4a11628f55a4df523b3ef60405160405180910390a4610f7f8383836114f3565b505050565b610f8c610bc8565b73ffffffffffffffffffffffffffffffffffffffff16610faa610827565b73ffffffffffffffffffffffffffffffffffffffff1614611000576040517f08c379a0000000000000000000000000000000000000000000000000000000008152600401610ff7906122ab565b60405180910390fd5b565b6000600660009054906101000a900473ffffffffffffffffffffffffffffffffffffffff16905081600660006101000a81548173ffffffffffffffffffffffffffffffffffffffff021916908373ffffffffffffffffffffffffffffffffffffffff1602179055508173ffffffffffffffffffffffffffffffffffffffff168173ffffffffffffffffffffffffffffffffffffffff167f8be0079c531659141344cd1fd0a4f28419497f9722a3daafe3b4186f6b6457e060405160405180910390a35050565b8173ffffffffffffffffffffffffffffffffffffffff168373ffffffffffffffffffffffffffffffffffffffff1603611136576040517f08c379a000000000000000000000000000000000000000000000000000000000815260040161112d90612317565b60405180910390fd5b80600560008573ffffffffffffffffffffffffffffffffffffffff1673ffffffffffffffffffffffffffffffffffffffff16815260200190815260200160002060008473ffffffffffffffffffffffffffffffffffffffff1673ffffffffffffffffffffffffffffffffffffffff16815260200190815260200160002060006101000a81548160ff0219169083151502179055508173ffffffffffffffffffffffffffffffffffffffff168373ffffffffffffffffffffffffffffffffffffffff167f17307eab39ab6107e8899845ad3d59bd9653f200f220920489ca2b5937696c31836040516112279190611733565b60405180910390a3505050565b61123f848484610d1e565b61124b848484846114f8565b61128a576040517f08c379a0000000000000000000000000000000000000000000000000000000008152600401611281906123a9565b60405180910390fd5b50505050565b60606009805461129f90611cab565b80601f01602080910402602001604051908101604052809291908181526020018280546112cb90611cab565b80156113185780601f106112ed57610100808354040283529160200191611318565b820191906000526020600020905b8154815290600101906020018083116112fb57829003601f168201915b5050505050905090565b606060008203611369576040518060400160405280600181526020017f3000000000000000000000000000000000000000000000000000000000000000815250905061147d565b600082905060005b6000821461139b578080611384906123c9565b915050600a826113949190612440565b9150611371565b60008167ffffffffffffffff8111156113b7576113b6611a8e565b5b6040519080825280601f01601f1916602001820160405280156113e95781602001600182028036833780820191505090505b5090505b600085146114765760018261140291906121d5565b9150600a856114119190612471565b603061141d9190612209565b60f81b818381518110611433576114326124a2565b5b60200101907effffffffffffffffffffffffffffffffffffffffffffffffffffffffffffff1916908160001a905350600a8561146f9190612440565b94506113ed565b8093505050505b919050565b60008073ffffffffffffffffffffffffffffffffffffffff166002600084815260200190815260200160002060009054906101000a900473ffffffffffffffffffffffffffffffffffffffff1673ffffffffffffffffffffffffffffffffffffffff1614159050919050565b505050565b505050565b60006115198473ffffffffffffffffffffffffffffffffffffffff16610af0565b15611672578373ffffffffffffffffffffffffffffffffffffffff1663150b7a02611542610bc8565b8786866040518563ffffffff1660e01b81526004016115649493929190612526565b6020604051808303816000875af19250505080156115a057506040513d601f19601f8201168201806040525081019061159d9190612587565b60015b611622573d80600081146115d0576040519150601f19603f3d011682016040523d82523d6000602084013e6115d5565b606091505b50600081510361161a576040517f08c379a0000000000000000000000000000000000000000000000000000000008152600401611611906123a9565b60405180910390fd5b805181602001fd5b63150b7a0260e01b7bffffffffffffffffffffffffffffffffffffffffffffffffffffffff1916817bffffffffffffffffffffffffffffffffffffffffffffffffffffffff191614915050611677565b600190505b949350505050565b6000604051905090565b600080fd5b600080fd5b60007fffffffff0000000000000000000000000000000000000000000000000000000082169050919050565b6116c881611693565b81146116d357600080fd5b50565b6000813590506116e5816116bf565b92915050565b60006020828403121561170157611700611689565b5b600061170f848285016116d6565b91505092915050565b60008115159050919050565b61172d81611718565b82525050565b60006020820190506117486000830184611724565b92915050565b600081519050919050565b600082825260208201905092915050565b60005b8381101561178857808201518184015260208101905061176d565b83811115611797576000848401525b50505050565b6000601f19601f8301169050919050565b60006117b98261174e565b6117c38185611759565b93506117d381856020860161176a565b6117dc8161179d565b840191505092915050565b6000602082019050818103600083015261180181846117ae565b905092915050565b6000819050919050565b61181c81611809565b811461182757600080fd5b50565b60008135905061183981611813565b92915050565b60006020828403121561185557611854611689565b5b60006118638482850161182a565b91505092915050565b600073ffffffffffffffffffffffffffffffffffffffff82169050919050565b60006118978261186c565b9050919050565b6118a78161188c565b82525050565b60006020820190506118c2600083018461189e565b92915050565b6118d18161188c565b81146118dc57600080fd5b50565b6000813590506118ee816118c8565b92915050565b6000806040838503121561190b5761190a611689565b5b6000611919858286016118df565b925050602061192a8582860161182a565b9150509250929050565b60008060006060848603121561194d5761194c611689565b5b600061195b868287016118df565b935050602061196c868287016118df565b925050604061197d8682870161182a565b9150509250925092565b60006020828403121561199d5761199c611689565b5b60006119ab848285016118df565b91505092915050565b6119bd81611809565b82525050565b60006020820190506119d860008301846119b4565b92915050565b600063ffffffff82169050919050565b6119f7816119de565b82525050565b6000602082019050611a1260008301846119ee565b92915050565b611a2181611718565b8114611a2c57600080fd5b50565b600081359050611a3e81611a18565b92915050565b60008060408385031215611a5b57611a5a611689565b5b6000611a69858286016118df565b9250506020611a7a85828601611a2f565b9150509250929050565b600080fd5b600080fd5b7f4e487b7100000000000000000000000000000000000000000000000000000000600052604160045260246000fd5b611ac68261179d565b810181811067ffffffffffffffff82111715611ae557611ae4611a8e565b5b80604052505050565b6000611af861167f565b9050611b048282611abd565b919050565b600067ffffffffffffffff821115611b2457611b23611a8e565b5b611b2d8261179d565b9050602081019050919050565b82818337600083830152505050565b6000611b5c611b5784611b09565b611aee565b905082815260208101848484011115611b7857611b77611a89565b5b611b83848285611b3a565b509392505050565b600082601f830112611ba057611b9f611a84565b5b8135611bb0848260208601611b49565b91505092915050565b60008060008060808587031215611bd357611bd2611689565b5b6000611be1878288016118df565b9450506020611bf2878288016118df565b9350506040611c038782880161182a565b925050606085013567ffffffffffffffff811115611c2457611c2361168e565b5b611c3087828801611b8b565b91505092959194509250565b60008060408385031215611c5357611c52611689565b5b6000611c61858286016118df565b9250506020611c72858286016118df565b9150509250929050565b7f4e487b7100000000000000000000000000000000000000000000000000000000600052602260045260246000fd5b60006002820490506001821680611cc357607f821691505b602082108103611cd657611cd5611c7c565b5b50919050565b7f4552433732313a20617070726f76616c20746f2063757272656e74206f776e6560008201527f7200000000000000000000000000000000000000000000000000000000000000602082015250565b6000611d38602183611759565b9150611d4382611cdc565b604082019050919050565b60006020820190508181036000830152611d6781611d2b565b9050919050565b7f4552433732313a20617070726f76652063616c6c6572206973206e6f7420746f60008201527f6b656e206f776e6572206e6f7220617070726f76656420666f7220616c6c0000602082015250565b6000611dca603e83611759565b9150611dd582611d6e565b604082019050919050565b60006020820190508181036000830152611df981611dbd565b9050919050565b7f4552433732313a2063616c6c6572206973206e6f7420746f6b656e206f776e6560008201527f72206e6f7220617070726f766564000000000000000000000000000000000000602082015250565b6000611e5c602e83611759565b9150611e6782611e00565b604082019050919050565b60006020820190508181036000830152611e8b81611e4f565b9050919050565b7f4552433732313a20696e76616c696420746f6b656e2049440000000000000000600082015250565b6000611ec8601883611759565b9150611ed382611e92565b602082019050919050565b60006020820190508181036000830152611ef781611ebb565b9050919050565b7f4552433732313a2061646472657373207a65726f206973206e6f74206120766160008201527f6c6964206f776e65720000000000000000000000000000000000000000000000602082015250565b6000611f5a602983611759565b9150611f6582611efe565b604082019050919050565b60006020820190508181036000830152611f8981611f4d565b9050919050565b600081905092915050565b6000611fa68261174e565b611fb08185611f90565b9350611fc081856020860161176a565b80840191505092915050565b6000611fd88285611f9b565b9150611fe48284611f9b565b91508190509392505050565b7f4f776e61626c653a206e6577206f776e657220697320746865207a65726f206160008201527f6464726573730000000000000000000000000000000000000000000000000000602082015250565b600061204c602683611759565b915061205782611ff0565b604082019050919050565b6000602082019050818103600083015261207b8161203f565b9050919050565b7f4552433732313a207472616e736665722066726f6d20696e636f72726563742060008201527f6f776e6572000000000000000000000000000000000000000000000000000000602082015250565b60006120de602583611759565b91506120e982612082565b604082019050919050565b6000602082019050818103600083015261210d816120d1565b9050919050565b7f4552433732313a207472616e7366657220746f20746865207a65726f2061646460008201527f7265737300000000000000000000000000000000000000000000000000000000602082015250565b6000612170602483611759565b915061217b82612114565b604082019050919050565b6000602082019050818103600083015261219f81612163565b9050919050565b7f4e487b7100000000000000000000000000000000000000000000000000000000600052601160045260246000fd5b60006121e082611809565b91506121eb83611809565b9250828210156121fe576121fd6121a6565b5b828203905092915050565b600061221482611809565b915061221f83611809565b9250827fffffffffffffffffffffffffffffffffffffffffffffffffffffffffffffffff03821115612254576122536121a6565b5b828201905092915050565b7f4f776e61626c653a2063616c6c6572206973206e6f7420746865206f776e6572600082015250565b6000612295602083611759565b91506122a08261225f565b602082019050919050565b600060208201905081810360008301526122c481612288565b9050919050565b7f4552433732313a20617070726f766520746f2063616c6c657200000000000000600082015250565b6000612301601983611759565b915061230c826122cb565b602082019050919050565b60006020820190508181036000830152612330816122f4565b9050919050565b7f4552433732313a207472616e7366657220746f206e6f6e20455243373231526560008201527f63656976657220696d706c656d656e7465720000000000000000000000000000602082015250565b6000612393603283611759565b915061239e82612337565b604082019050919050565b600060208201905081810360008301526123c281612386565b9050919050565b60006123d482611809565b91507fffffffffffffffffffffffffffffffffffffffffffffffffffffffffffffffff8203612406576124056121a6565b5b600182019050919050565b7f4e487b7100000000000000000000000000000000000000000000000000000000600052601260045260246000fd5b600061244b82611809565b915061245683611809565b92508261246657612465612411565b5b828204905092915050565b600061247c82611809565b915061248783611809565b92508261249757612496612411565b5b828206905092915050565b7f4e487b7100000000000000000000000000000000000000000000000000000000600052603260045260246000fd5b600081519050919050565b600082825260208201905092915050565b60006124f8826124d1565b61250281856124dc565b935061251281856020860161176a565b61251b8161179d565b840191505092915050565b600060808201905061253b600083018761189e565b612548602083018661189e565b61255560408301856119b4565b818103606083015261256781846124ed565b905095945050505050565b600081519050612581816116bf565b92915050565b60006020828403121561259d5761259c611689565b5b60006125ab84828501612572565b9150509291505056fea2646970667358221220a6781080b16d3fbe6559e5c74593ced649746839d692518722446125107b837964736f6c634300080d0033",
  "immutableReferences": {},
  "source": "pragma solidity ^0.8.4;\n\nimport \"@openzeppelin/contracts/token/ERC721/ERC721.sol\";\nimport \"@openzeppelin/contracts/token/ERC721/extensions/ERC721Enumerable.sol\";\nimport \"@openzeppelin/contracts/token/ERC721/extensions/ERC721URIStorage.sol\";\nimport \"@openzeppelin/contracts/token/ERC721/extensions/ERC721Burnable.sol\";\nimport \"@openzeppelin/contracts/utils/Counters.sol\";\nimport \"@openzeppelin/contracts/access/Ownable.sol\";\n\ncontract LuxyToken is ERC721, Ownable {\n    using Counters for Counters.Counter;\n    Counters.Counter private _tokenIdCounter;\n\n    uint32 public size;\n    string uri;\n\n    constructor(uint32 _size, string memory _name, string memory _symbol, string memory _uri) ERC721(_name, _symbol) {\n        uri = _uri;\n        size = _size;\n        for(uint32 i=0; i < size ; i++){\n            _safeMint(msg.sender, i);\n        }\n    }\n\n    function _baseURI() internal view override returns (string memory) {\n        return uri;\n    }\n    \n}\n",
  "sourcePath": "/home/morais/Desktop/market/market/Truffle/contracts/LuxyToken.sol",
  "compiler": {
    "name": "solc",
    "version": "0.8.13+commit.abaa5c0e.Emscripten.clang"
  },
  "schemaVersion": "3.4.8",
  "updatedAt": "2022-08-08T21:48:30.485Z",
  "devdoc": {
    "kind": "dev",
    "methods": {
      "approve(address,uint256)": {
        "details": "See {IERC721-approve}."
      },
      "balanceOf(address)": {
        "details": "See {IERC721-balanceOf}."
      },
      "getApproved(uint256)": {
        "details": "See {IERC721-getApproved}."
      },
      "isApprovedForAll(address,address)": {
        "details": "See {IERC721-isApprovedForAll}."
      },
      "name()": {
        "details": "See {IERC721Metadata-name}."
      },
      "owner()": {
        "details": "Returns the address of the current owner."
      },
      "ownerOf(uint256)": {
        "details": "See {IERC721-ownerOf}."
      },
      "renounceOwnership()": {
        "details": "Leaves the contract without owner. It will not be possible to call `onlyOwner` functions anymore. Can only be called by the current owner. NOTE: Renouncing ownership will leave the contract without an owner, thereby removing any functionality that is only available to the owner."
      },
      "safeTransferFrom(address,address,uint256)": {
        "details": "See {IERC721-safeTransferFrom}."
      },
      "safeTransferFrom(address,address,uint256,bytes)": {
        "details": "See {IERC721-safeTransferFrom}."
      },
      "setApprovalForAll(address,bool)": {
        "details": "See {IERC721-setApprovalForAll}."
      },
      "supportsInterface(bytes4)": {
        "details": "See {IERC165-supportsInterface}."
      },
      "symbol()": {
        "details": "See {IERC721Metadata-symbol}."
      },
      "tokenURI(uint256)": {
        "details": "See {IERC721Metadata-tokenURI}."
      },
      "transferFrom(address,address,uint256)": {
        "details": "See {IERC721-transferFrom}."
      },
      "transferOwnership(address)": {
        "details": "Transfers ownership of the contract to a new account (`newOwner`). Can only be called by the current owner."
      }
    },
    "version": 1
  },
  "userdoc": {
    "kind": "user",
    "methods": {},
    "version": 1
  }
}