{
  "contractName": "MyToken",
  "abi": [
    {
      "inputs": [],
      "stateMutability": "nonpayable",
      "type": "constructor"
    },
    {
      "anonymous": false,
      "inputs": [
        {
          "indexed": true,
          "internalType": "address",
          "name": "owner",
          "type": "address"
        },
        {
          "indexed": true,
          "internalType": "address",
          "name": "approved",
          "type": "address"
        },
        {
          "indexed": true,
          "internalType": "uint256",
          "name": "tokenId",
          "type": "uint256"
        }
      ],
      "name": "Approval",
      "type": "event"
    },
    {
      "anonymous": false,
      "inputs": [
        {
          "indexed": true,
          "internalType": "address",
          "name": "owner",
          "type": "address"
        },
        {
          "indexed": true,
          "internalType": "address",
          "name": "operator",
          "type": "address"
        },
        {
          "indexed": false,
          "internalType": "bool",
          "name": "approved",
          "type": "bool"
        }
      ],
      "name": "ApprovalForAll",
      "type": "event"
    },
    {
      "anonymous": false,
      "inputs": [
        {
          "indexed": true,
          "internalType": "address",
          "name": "previousOwner",
          "type": "address"
        },
        {
          "indexed": true,
          "internalType": "address",
          "name": "newOwner",
          "type": "address"
        }
      ],
      "name": "OwnershipTransferred",
      "type": "event"
    },
    {
      "anonymous": false,
      "inputs": [
        {
          "indexed": true,
          "internalType": "address",
          "name": "from",
          "type": "address"
        },
        {
          "indexed": true,
          "internalType": "address",
          "name": "to",
          "type": "address"
        },
        {
          "indexed": true,
          "internalType": "uint256",
          "name": "tokenId",
          "type": "uint256"
        }
      ],
      "name": "Transfer",
      "type": "event"
    },
    {
      "inputs": [
        {
          "internalType": "address",
          "name": "to",
          "type": "address"
        },
        {
          "internalType": "uint256",
          "name": "tokenId",
          "type": "uint256"
        }
      ],
      "name": "approve",
      "outputs": [],
      "stateMutability": "nonpayable",
      "type": "function"
    },
    {
      "inputs": [
        {
          "internalType": "address",
          "name": "owner",
          "type": "address"
        }
      ],
      "name": "balanceOf",
      "outputs": [
        {
          "internalType": "uint256",
          "name": "",
          "type": "uint256"
        }
      ],
      "stateMutability": "view",
      "type": "function",
      "constant": true
    },
    {
      "inputs": [
        {
          "internalType": "uint256",
          "name": "tokenId",
          "type": "uint256"
        }
      ],
      "name": "burn",
      "outputs": [],
      "stateMutability": "nonpayable",
      "type": "function"
    },
    {
      "inputs": [
        {
          "internalType": "uint256",
          "name": "tokenId",
          "type": "uint256"
        }
      ],
      "name": "getApproved",
      "outputs": [
        {
          "internalType": "address",
          "name": "",
          "type": "address"
        }
      ],
      "stateMutability": "view",
      "type": "function",
      "constant": true
    },
    {
      "inputs": [
        {
          "internalType": "address",
          "name": "owner",
          "type": "address"
        },
        {
          "internalType": "address",
          "name": "operator",
          "type": "address"
        }
      ],
      "name": "isApprovedForAll",
      "outputs": [
        {
          "internalType": "bool",
          "name": "",
          "type": "bool"
        }
      ],
      "stateMutability": "view",
      "type": "function",
      "constant": true
    },
    {
      "inputs": [],
      "name": "name",
      "outputs": [
        {
          "internalType": "string",
          "name": "",
          "type": "string"
        }
      ],
      "stateMutability": "view",
      "type": "function",
      "constant": true
    },
    {
      "inputs": [],
      "name": "owner",
      "outputs": [
        {
          "internalType": "address",
          "name": "",
          "type": "address"
        }
      ],
      "stateMutability": "view",
      "type": "function",
      "constant": true
    },
    {
      "inputs": [
        {
          "internalType": "uint256",
          "name": "tokenId",
          "type": "uint256"
        }
      ],
      "name": "ownerOf",
      "outputs": [
        {
          "internalType": "address",
          "name": "",
          "type": "address"
        }
      ],
      "stateMutability": "view",
      "type": "function",
      "constant": true
    },
    {
      "inputs": [],
      "name": "renounceOwnership",
      "outputs": [],
      "stateMutability": "nonpayable",
      "type": "function"
    },
    {
      "inputs": [
        {
          "internalType": "address",
          "name": "from",
          "type": "address"
        },
        {
          "internalType": "address",
          "name": "to",
          "type": "address"
        },
        {
          "internalType": "uint256",
          "name": "tokenId",
          "type": "uint256"
        }
      ],
      "name": "safeTransferFrom",
      "outputs": [],
      "stateMutability": "nonpayable",
      "type": "function"
    },
    {
      "inputs": [
        {
          "internalType": "address",
          "name": "from",
          "type": "address"
        },
        {
          "internalType": "address",
          "name": "to",
          "type": "address"
        },
        {
          "internalType": "uint256",
          "name": "tokenId",
          "type": "uint256"
        },
        {
          "internalType": "bytes",
          "name": "_data",
          "type": "bytes"
        }
      ],
      "name": "safeTransferFrom",
      "outputs": [],
      "stateMutability": "nonpayable",
      "type": "function"
    },
    {
      "inputs": [
        {
          "internalType": "address",
          "name": "operator",
          "type": "address"
        },
        {
          "internalType": "bool",
          "name": "approved",
          "type": "bool"
        }
      ],
      "name": "setApprovalForAll",
      "outputs": [],
      "stateMutability": "nonpayable",
      "type": "function"
    },
    {
      "inputs": [
        {
          "internalType": "bytes4",
          "name": "interfaceId",
          "type": "bytes4"
        }
      ],
      "name": "supportsInterface",
      "outputs": [
        {
          "internalType": "bool",
          "name": "",
          "type": "bool"
        }
      ],
      "stateMutability": "view",
      "type": "function",
      "constant": true
    },
    {
      "inputs": [],
      "name": "symbol",
      "outputs": [
        {
          "internalType": "string",
          "name": "",
          "type": "string"
        }
      ],
      "stateMutability": "view",
      "type": "function",
      "constant": true
    },
    {
      "inputs": [
        {
          "internalType": "address",
          "name": "from",
          "type": "address"
        },
        {
          "internalType": "address",
          "name": "to",
          "type": "address"
        },
        {
          "internalType": "uint256",
          "name": "tokenId",
          "type": "uint256"
        }
      ],
      "name": "transferFrom",
      "outputs": [],
      "stateMutability": "nonpayable",
      "type": "function"
    },
    {
      "inputs": [
        {
          "internalType": "address",
          "name": "newOwner",
          "type": "address"
        }
      ],
      "name": "transferOwnership",
      "outputs": [],
      "stateMutability": "nonpayable",
      "type": "function"
    },
    {
      "inputs": [
        {
          "internalType": "address",
          "name": "to",
          "type": "address"
        },
        {
          "internalType": "string",
          "name": "uri",
          "type": "string"
        }
      ],
      "name": "safeMint",
      "outputs": [],
      "stateMutability": "nonpayable",
      "type": "function"
    },
    {
      "inputs": [
        {
          "internalType": "uint256",
          "name": "tokenId",
          "type": "uint256"
        }
      ],
      "name": "tokenURI",
      "outputs": [
        {
          "internalType": "string",
          "name": "",
          "type": "string"
        }
      ],
      "stateMutability": "view",
      "type": "function",
      "constant": true
    }
  ],
  "bytecode": "0x60806040523480156200001157600080fd5b506040518060400160405280600781526020017f4d79546f6b656e000000000000000000000000000000000000000000000000008152506040518060400160405280600381526020017f4d544b0000000000000000000000000000000000000000000000000000000000815250816000908051906020019062000096929190620001a6565b508060019080519060200190620000af929190620001a6565b505050620000d2620000c6620000d860201b60201c565b620000e060201b60201c565b620002ba565b600033905090565b6000600760009054906101000a900473ffffffffffffffffffffffffffffffffffffffff16905081600760006101000a81548173ffffffffffffffffffffffffffffffffffffffff021916908373ffffffffffffffffffffffffffffffffffffffff1602179055508173ffffffffffffffffffffffffffffffffffffffff168173ffffffffffffffffffffffffffffffffffffffff167f8be0079c531659141344cd1fd0a4f28419497f9722a3daafe3b4186f6b6457e060405160405180910390a35050565b828054620001b49062000285565b90600052602060002090601f016020900481019282620001d8576000855562000224565b82601f10620001f357805160ff191683800117855562000224565b8280016001018555821562000224579182015b828111156200022357825182559160200191906001019062000206565b5b50905062000233919062000237565b5090565b5b808211156200025257600081600090555060010162000238565b5090565b7f4e487b7100000000000000000000000000000000000000000000000000000000600052602260045260246000fd5b600060028204905060018216806200029e57607f821691505b602082108103620002b457620002b362000256565b5b50919050565b61336c80620002ca6000396000f3fe608060405234801561001057600080fd5b50600436106101165760003560e01c8063715018a6116100a2578063b88d4fde11610071578063b88d4fde146102cb578063c87b56dd146102e7578063d204c45e14610317578063e985e9c514610333578063f2fde38b1461036357610116565b8063715018a6146102695780638da5cb5b1461027357806395d89b4114610291578063a22cb465146102af57610116565b806323b872dd116100e957806323b872dd146101b557806342842e0e146101d157806342966c68146101ed5780636352211e1461020957806370a082311461023957610116565b806301ffc9a71461011b57806306fdde031461014b578063081812fc14610169578063095ea7b314610199575b600080fd5b61013560048036038101906101309190611f40565b61037f565b6040516101429190611f88565b60405180910390f35b610153610461565b604051610160919061203c565b60405180910390f35b610183600480360381019061017e9190612094565b6104f3565b6040516101909190612102565b60405180910390f35b6101b360048036038101906101ae9190612149565b610578565b005b6101cf60048036038101906101ca9190612189565b61068f565b005b6101eb60048036038101906101e69190612189565b6106ef565b005b61020760048036038101906102029190612094565b61070f565b005b610223600480360381019061021e9190612094565b61076b565b6040516102309190612102565b60405180910390f35b610253600480360381019061024e91906121dc565b61081c565b6040516102609190612218565b60405180910390f35b6102716108d3565b005b61027b61095b565b6040516102889190612102565b60405180910390f35b610299610985565b6040516102a6919061203c565b60405180910390f35b6102c960048036038101906102c4919061225f565b610a17565b005b6102e560048036038101906102e091906123d4565b610a2d565b005b61030160048036038101906102fc9190612094565b610a8f565b60405161030e919061203c565b60405180910390f35b610331600480360381019061032c91906124f8565b610aa1565b005b61034d60048036038101906103489190612554565b610b4e565b60405161035a9190611f88565b60405180910390f35b61037d600480360381019061037891906121dc565b610be2565b005b60007f80ac58cd000000000000000000000000000000000000000000000000000000007bffffffffffffffffffffffffffffffffffffffffffffffffffffffff1916827bffffffffffffffffffffffffffffffffffffffffffffffffffffffff1916148061044a57507f5b5e139f000000000000000000000000000000000000000000000000000000007bffffffffffffffffffffffffffffffffffffffffffffffffffffffff1916827bffffffffffffffffffffffffffffffffffffffffffffffffffffffff1916145b8061045a575061045982610cd9565b5b9050919050565b606060008054610470906125c3565b80601f016020809104026020016040519081016040528092919081815260200182805461049c906125c3565b80156104e95780601f106104be576101008083540402835291602001916104e9565b820191906000526020600020905b8154815290600101906020018083116104cc57829003601f168201915b5050505050905090565b60006104fe82610d43565b61053d576040517f08c379a000000000000000000000000000000000000000000000000000000000815260040161053490612666565b60405180910390fd5b6004600083815260200190815260200160002060009054906101000a900473ffffffffffffffffffffffffffffffffffffffff169050919050565b60006105838261076b565b90508073ffffffffffffffffffffffffffffffffffffffff168373ffffffffffffffffffffffffffffffffffffffff16036105f3576040517f08c379a00000000000000000000000000000000000000000000000000000000081526004016105ea906126f8565b60405180910390fd5b8073ffffffffffffffffffffffffffffffffffffffff16610612610daf565b73ffffffffffffffffffffffffffffffffffffffff16148061064157506106408161063b610daf565b610b4e565b5b610680576040517f08c379a00000000000000000000000000000000000000000000000000000000081526004016106779061278a565b60405180910390fd5b61068a8383610db7565b505050565b6106a061069a610daf565b82610e70565b6106df576040517f08c379a00000000000000000000000000000000000000000000000000000000081526004016106d69061281c565b60405180910390fd5b6106ea838383610f4e565b505050565b61070a83838360405180602001604052806000815250610a2d565b505050565b61072061071a610daf565b82610e70565b61075f576040517f08c379a0000000000000000000000000000000000000000000000000000000008152600401610756906128ae565b60405180910390fd5b610768816111b4565b50565b6000806002600084815260200190815260200160002060009054906101000a900473ffffffffffffffffffffffffffffffffffffffff169050600073ffffffffffffffffffffffffffffffffffffffff168173ffffffffffffffffffffffffffffffffffffffff1603610813576040517f08c379a000000000000000000000000000000000000000000000000000000000815260040161080a90612940565b60405180910390fd5b80915050919050565b60008073ffffffffffffffffffffffffffffffffffffffff168273ffffffffffffffffffffffffffffffffffffffff160361088c576040517f08c379a0000000000000000000000000000000000000000000000000000000008152600401610883906129d2565b60405180910390fd5b600360008373ffffffffffffffffffffffffffffffffffffffff1673ffffffffffffffffffffffffffffffffffffffff168152602001908152602001600020549050919050565b6108db610daf565b73ffffffffffffffffffffffffffffffffffffffff166108f961095b565b73ffffffffffffffffffffffffffffffffffffffff161461094f576040517f08c379a000000000000000000000000000000000000000000000000000000000815260040161094690612a3e565b60405180910390fd5b61095960006111c0565b565b6000600760009054906101000a900473ffffffffffffffffffffffffffffffffffffffff16905090565b606060018054610994906125c3565b80601f01602080910402602001604051908101604052809291908181526020018280546109c0906125c3565b8015610a0d5780601f106109e257610100808354040283529160200191610a0d565b820191906000526020600020905b8154815290600101906020018083116109f057829003601f168201915b5050505050905090565b610a29610a22610daf565b8383611286565b5050565b610a3e610a38610daf565b83610e70565b610a7d576040517f08c379a0000000000000000000000000000000000000000000000000000000008152600401610a749061281c565b60405180910390fd5b610a89848484846113f2565b50505050565b6060610a9a8261144e565b9050919050565b610aa9610daf565b73ffffffffffffffffffffffffffffffffffffffff16610ac761095b565b73ffffffffffffffffffffffffffffffffffffffff1614610b1d576040517f08c379a0000000000000000000000000000000000000000000000000000000008152600401610b1490612a3e565b60405180910390fd5b6000610b29600861159f565b9050610b3560086115ad565b610b3f83826115c3565b610b4981836115e1565b505050565b6000600560008473ffffffffffffffffffffffffffffffffffffffff1673ffffffffffffffffffffffffffffffffffffffff16815260200190815260200160002060008373ffffffffffffffffffffffffffffffffffffffff1673ffffffffffffffffffffffffffffffffffffffff16815260200190815260200160002060009054906101000a900460ff16905092915050565b610bea610daf565b73ffffffffffffffffffffffffffffffffffffffff16610c0861095b565b73ffffffffffffffffffffffffffffffffffffffff1614610c5e576040517f08c379a0000000000000000000000000000000000000000000000000000000008152600401610c5590612a3e565b60405180910390fd5b600073ffffffffffffffffffffffffffffffffffffffff168173ffffffffffffffffffffffffffffffffffffffff1603610ccd576040517f08c379a0000000000000000000000000000000000000000000000000000000008152600401610cc490612ad0565b60405180910390fd5b610cd6816111c0565b50565b60007f01ffc9a7000000000000000000000000000000000000000000000000000000007bffffffffffffffffffffffffffffffffffffffffffffffffffffffff1916827bffffffffffffffffffffffffffffffffffffffffffffffffffffffff1916149050919050565b60008073ffffffffffffffffffffffffffffffffffffffff166002600084815260200190815260200160002060009054906101000a900473ffffffffffffffffffffffffffffffffffffffff1673ffffffffffffffffffffffffffffffffffffffff1614159050919050565b600033905090565b816004600083815260200190815260200160002060006101000a81548173ffffffffffffffffffffffffffffffffffffffff021916908373ffffffffffffffffffffffffffffffffffffffff160217905550808273ffffffffffffffffffffffffffffffffffffffff16610e2a8361076b565b73ffffffffffffffffffffffffffffffffffffffff167f8c5be1e5ebec7d5bd14f71427d1e84f3dd0314c0f7b2291e5b200ac8c7c3b92560405160405180910390a45050565b6000610e7b82610d43565b610eba576040517f08c379a0000000000000000000000000000000000000000000000000000000008152600401610eb190612b62565b60405180910390fd5b6000610ec58361076b565b90508073ffffffffffffffffffffffffffffffffffffffff168473ffffffffffffffffffffffffffffffffffffffff161480610f075750610f068185610b4e565b5b80610f4557508373ffffffffffffffffffffffffffffffffffffffff16610f2d846104f3565b73ffffffffffffffffffffffffffffffffffffffff16145b91505092915050565b8273ffffffffffffffffffffffffffffffffffffffff16610f6e8261076b565b73ffffffffffffffffffffffffffffffffffffffff1614610fc4576040517f08c379a0000000000000000000000000000000000000000000000000000000008152600401610fbb90612bf4565b60405180910390fd5b600073ffffffffffffffffffffffffffffffffffffffff168273ffffffffffffffffffffffffffffffffffffffff1603611033576040517f08c379a000000000000000000000000000000000000000000000000000000000815260040161102a90612c86565b60405180910390fd5b61103e838383611655565b611049600082610db7565b6001600360008573ffffffffffffffffffffffffffffffffffffffff1673ffffffffffffffffffffffffffffffffffffffff16815260200190815260200160002060008282546110999190612cd5565b925050819055506001600360008473ffffffffffffffffffffffffffffffffffffffff1673ffffffffffffffffffffffffffffffffffffffff16815260200190815260200160002060008282546110f09190612d09565b92505081905550816002600083815260200190815260200160002060006101000a81548173ffffffffffffffffffffffffffffffffffffffff021916908373ffffffffffffffffffffffffffffffffffffffff160217905550808273ffffffffffffffffffffffffffffffffffffffff168473ffffffffffffffffffffffffffffffffffffffff167fddf252ad1be2c89b69c2b068fc378daa952ba7f163c4a11628f55a4df523b3ef60405160405180910390a46111af83838361165a565b505050565b6111bd8161165f565b50565b6000600760009054906101000a900473ffffffffffffffffffffffffffffffffffffffff16905081600760006101000a81548173ffffffffffffffffffffffffffffffffffffffff021916908373ffffffffffffffffffffffffffffffffffffffff1602179055508173ffffffffffffffffffffffffffffffffffffffff168173ffffffffffffffffffffffffffffffffffffffff167f8be0079c531659141344cd1fd0a4f28419497f9722a3daafe3b4186f6b6457e060405160405180910390a35050565b8173ffffffffffffffffffffffffffffffffffffffff168373ffffffffffffffffffffffffffffffffffffffff16036112f4576040517f08c379a00000000000000000000000000000000000000000000000000000000081526004016112eb90612dab565b60405180910390fd5b80600560008573ffffffffffffffffffffffffffffffffffffffff1673ffffffffffffffffffffffffffffffffffffffff16815260200190815260200160002060008473ffffffffffffffffffffffffffffffffffffffff1673ffffffffffffffffffffffffffffffffffffffff16815260200190815260200160002060006101000a81548160ff0219169083151502179055508173ffffffffffffffffffffffffffffffffffffffff168373ffffffffffffffffffffffffffffffffffffffff167f17307eab39ab6107e8899845ad3d59bd9653f200f220920489ca2b5937696c31836040516113e59190611f88565b60405180910390a3505050565b6113fd848484610f4e565b611409848484846116b2565b611448576040517f08c379a000000000000000000000000000000000000000000000000000000000815260040161143f90612e3d565b60405180910390fd5b50505050565b606061145982610d43565b611498576040517f08c379a000000000000000000000000000000000000000000000000000000000815260040161148f90612ecf565b60405180910390fd5b60006006600084815260200190815260200160002080546114b8906125c3565b80601f01602080910402602001604051908101604052809291908181526020018280546114e4906125c3565b80156115315780601f1061150657610100808354040283529160200191611531565b820191906000526020600020905b81548152906001019060200180831161151457829003601f168201915b505050505090506000611542611839565b9050600081510361155757819250505061159a565b60008251111561158c578082604051602001611574929190612f2b565b6040516020818303038152906040529250505061159a565b61159584611876565b925050505b919050565b600081600001549050919050565b6001816000016000828254019250508190555050565b6115dd82826040518060200160405280600081525061191d565b5050565b6115ea82610d43565b611629576040517f08c379a000000000000000000000000000000000000000000000000000000000815260040161162090612fc1565b60405180910390fd5b80600660008481526020019081526020016000209080519060200190611650929190611df1565b505050565b505050565b505050565b61166881611978565b6000600660008381526020019081526020016000208054611688906125c3565b9050146116af576006600082815260200190815260200160002060006116ae9190611e77565b5b50565b60006116d38473ffffffffffffffffffffffffffffffffffffffff16611a95565b1561182c578373ffffffffffffffffffffffffffffffffffffffff1663150b7a026116fc610daf565b8786866040518563ffffffff1660e01b815260040161171e9493929190613036565b6020604051808303816000875af192505050801561175a57506040513d601f19601f820116820180604052508101906117579190613097565b60015b6117dc573d806000811461178a576040519150601f19603f3d011682016040523d82523d6000602084013e61178f565b606091505b5060008151036117d4576040517f08c379a00000000000000000000000000000000000000000000000000000000081526004016117cb90612e3d565b60405180910390fd5b805181602001fd5b63150b7a0260e01b7bffffffffffffffffffffffffffffffffffffffffffffffffffffffff1916817bffffffffffffffffffffffffffffffffffffffffffffffffffffffff191614915050611831565b600190505b949350505050565b60606040518060400160405280601481526020017f697066733a2f2f31323431323531323538323035000000000000000000000000815250905090565b606061188182610d43565b6118c0576040517f08c379a00000000000000000000000000000000000000000000000000000000081526004016118b790613136565b60405180910390fd5b60006118ca611839565b905060008151116118ea5760405180602001604052806000815250611915565b806118f484611ab8565b604051602001611905929190612f2b565b6040516020818303038152906040525b915050919050565b6119278383611c18565b61193460008484846116b2565b611973576040517f08c379a000000000000000000000000000000000000000000000000000000000815260040161196a90612e3d565b60405180910390fd5b505050565b60006119838261076b565b905061199181600084611655565b61199c600083610db7565b6001600360008373ffffffffffffffffffffffffffffffffffffffff1673ffffffffffffffffffffffffffffffffffffffff16815260200190815260200160002060008282546119ec9190612cd5565b925050819055506002600083815260200190815260200160002060006101000a81549073ffffffffffffffffffffffffffffffffffffffff021916905581600073ffffffffffffffffffffffffffffffffffffffff168273ffffffffffffffffffffffffffffffffffffffff167fddf252ad1be2c89b69c2b068fc378daa952ba7f163c4a11628f55a4df523b3ef60405160405180910390a4611a918160008461165a565b5050565b6000808273ffffffffffffffffffffffffffffffffffffffff163b119050919050565b606060008203611aff576040518060400160405280600181526020017f30000000000000000000000000000000000000000000000000000000000000008152509050611c13565b600082905060005b60008214611b31578080611b1a90613156565b915050600a82611b2a91906131cd565b9150611b07565b60008167ffffffffffffffff811115611b4d57611b4c6122a9565b5b6040519080825280601f01601f191660200182016040528015611b7f5781602001600182028036833780820191505090505b5090505b60008514611c0c57600182611b989190612cd5565b9150600a85611ba791906131fe565b6030611bb39190612d09565b60f81b818381518110611bc957611bc861322f565b5b60200101907effffffffffffffffffffffffffffffffffffffffffffffffffffffffffffff1916908160001a905350600a85611c0591906131cd565b9450611b83565b8093505050505b919050565b600073ffffffffffffffffffffffffffffffffffffffff168273ffffffffffffffffffffffffffffffffffffffff1603611c87576040517f08c379a0000000000000000000000000000000000000000000000000000000008152600401611c7e906132aa565b60405180910390fd5b611c9081610d43565b15611cd0576040517f08c379a0000000000000000000000000000000000000000000000000000000008152600401611cc790613316565b60405180910390fd5b611cdc60008383611655565b6001600360008473ffffffffffffffffffffffffffffffffffffffff1673ffffffffffffffffffffffffffffffffffffffff1681526020019081526020016000206000828254611d2c9190612d09565b92505081905550816002600083815260200190815260200160002060006101000a81548173ffffffffffffffffffffffffffffffffffffffff021916908373ffffffffffffffffffffffffffffffffffffffff160217905550808273ffffffffffffffffffffffffffffffffffffffff16600073ffffffffffffffffffffffffffffffffffffffff167fddf252ad1be2c89b69c2b068fc378daa952ba7f163c4a11628f55a4df523b3ef60405160405180910390a4611ded6000838361165a565b5050565b828054611dfd906125c3565b90600052602060002090601f016020900481019282611e1f5760008555611e66565b82601f10611e3857805160ff1916838001178555611e66565b82800160010185558215611e66579182015b82811115611e65578251825591602001919060010190611e4a565b5b509050611e739190611eb7565b5090565b508054611e83906125c3565b6000825580601f10611e955750611eb4565b601f016020900490600052602060002090810190611eb39190611eb7565b5b50565b5b80821115611ed0576000816000905550600101611eb8565b5090565b6000604051905090565b600080fd5b600080fd5b60007fffffffff0000000000000000000000000000000000000000000000000000000082169050919050565b611f1d81611ee8565b8114611f2857600080fd5b50565b600081359050611f3a81611f14565b92915050565b600060208284031215611f5657611f55611ede565b5b6000611f6484828501611f2b565b91505092915050565b60008115159050919050565b611f8281611f6d565b82525050565b6000602082019050611f9d6000830184611f79565b92915050565b600081519050919050565b600082825260208201905092915050565b60005b83811015611fdd578082015181840152602081019050611fc2565b83811115611fec576000848401525b50505050565b6000601f19601f8301169050919050565b600061200e82611fa3565b6120188185611fae565b9350612028818560208601611fbf565b61203181611ff2565b840191505092915050565b600060208201905081810360008301526120568184612003565b905092915050565b6000819050919050565b6120718161205e565b811461207c57600080fd5b50565b60008135905061208e81612068565b92915050565b6000602082840312156120aa576120a9611ede565b5b60006120b88482850161207f565b91505092915050565b600073ffffffffffffffffffffffffffffffffffffffff82169050919050565b60006120ec826120c1565b9050919050565b6120fc816120e1565b82525050565b600060208201905061211760008301846120f3565b92915050565b612126816120e1565b811461213157600080fd5b50565b6000813590506121438161211d565b92915050565b600080604083850312156121605761215f611ede565b5b600061216e85828601612134565b925050602061217f8582860161207f565b9150509250929050565b6000806000606084860312156121a2576121a1611ede565b5b60006121b086828701612134565b93505060206121c186828701612134565b92505060406121d28682870161207f565b9150509250925092565b6000602082840312156121f2576121f1611ede565b5b600061220084828501612134565b91505092915050565b6122128161205e565b82525050565b600060208201905061222d6000830184612209565b92915050565b61223c81611f6d565b811461224757600080fd5b50565b60008135905061225981612233565b92915050565b6000806040838503121561227657612275611ede565b5b600061228485828601612134565b92505060206122958582860161224a565b9150509250929050565b600080fd5b600080fd5b7f4e487b7100000000000000000000000000000000000000000000000000000000600052604160045260246000fd5b6122e182611ff2565b810181811067ffffffffffffffff82111715612300576122ff6122a9565b5b80604052505050565b6000612313611ed4565b905061231f82826122d8565b919050565b600067ffffffffffffffff82111561233f5761233e6122a9565b5b61234882611ff2565b9050602081019050919050565b82818337600083830152505050565b600061237761237284612324565b612309565b905082815260208101848484011115612393576123926122a4565b5b61239e848285612355565b509392505050565b600082601f8301126123bb576123ba61229f565b5b81356123cb848260208601612364565b91505092915050565b600080600080608085870312156123ee576123ed611ede565b5b60006123fc87828801612134565b945050602061240d87828801612134565b935050604061241e8782880161207f565b925050606085013567ffffffffffffffff81111561243f5761243e611ee3565b5b61244b878288016123a6565b91505092959194509250565b600067ffffffffffffffff821115612472576124716122a9565b5b61247b82611ff2565b9050602081019050919050565b600061249b61249684612457565b612309565b9050828152602081018484840111156124b7576124b66122a4565b5b6124c2848285612355565b509392505050565b600082601f8301126124df576124de61229f565b5b81356124ef848260208601612488565b91505092915050565b6000806040838503121561250f5761250e611ede565b5b600061251d85828601612134565b925050602083013567ffffffffffffffff81111561253e5761253d611ee3565b5b61254a858286016124ca565b9150509250929050565b6000806040838503121561256b5761256a611ede565b5b600061257985828601612134565b925050602061258a85828601612134565b9150509250929050565b7f4e487b7100000000000000000000000000000000000000000000000000000000600052602260045260246000fd5b600060028204905060018216806125db57607f821691505b6020821081036125ee576125ed612594565b5b50919050565b7f4552433732313a20617070726f76656420717565727920666f72206e6f6e657860008201527f697374656e7420746f6b656e0000000000000000000000000000000000000000602082015250565b6000612650602c83611fae565b915061265b826125f4565b604082019050919050565b6000602082019050818103600083015261267f81612643565b9050919050565b7f4552433732313a20617070726f76616c20746f2063757272656e74206f776e6560008201527f7200000000000000000000000000000000000000000000000000000000000000602082015250565b60006126e2602183611fae565b91506126ed82612686565b604082019050919050565b60006020820190508181036000830152612711816126d5565b9050919050565b7f4552433732313a20617070726f76652063616c6c6572206973206e6f74206f7760008201527f6e6572206e6f7220617070726f76656420666f7220616c6c0000000000000000602082015250565b6000612774603883611fae565b915061277f82612718565b604082019050919050565b600060208201905081810360008301526127a381612767565b9050919050565b7f4552433732313a207472616e736665722063616c6c6572206973206e6f74206f60008201527f776e6572206e6f7220617070726f766564000000000000000000000000000000602082015250565b6000612806603183611fae565b9150612811826127aa565b604082019050919050565b60006020820190508181036000830152612835816127f9565b9050919050565b7f4552433732314275726e61626c653a2063616c6c6572206973206e6f74206f7760008201527f6e6572206e6f7220617070726f76656400000000000000000000000000000000602082015250565b6000612898603083611fae565b91506128a38261283c565b604082019050919050565b600060208201905081810360008301526128c78161288b565b9050919050565b7f4552433732313a206f776e657220717565727920666f72206e6f6e657869737460008201527f656e7420746f6b656e0000000000000000000000000000000000000000000000602082015250565b600061292a602983611fae565b9150612935826128ce565b604082019050919050565b600060208201905081810360008301526129598161291d565b9050919050565b7f4552433732313a2062616c616e636520717565727920666f7220746865207a6560008201527f726f206164647265737300000000000000000000000000000000000000000000602082015250565b60006129bc602a83611fae565b91506129c782612960565b604082019050919050565b600060208201905081810360008301526129eb816129af565b9050919050565b7f4f776e61626c653a2063616c6c6572206973206e6f7420746865206f776e6572600082015250565b6000612a28602083611fae565b9150612a33826129f2565b602082019050919050565b60006020820190508181036000830152612a5781612a1b565b9050919050565b7f4f776e61626c653a206e6577206f776e657220697320746865207a65726f206160008201527f6464726573730000000000000000000000000000000000000000000000000000602082015250565b6000612aba602683611fae565b9150612ac582612a5e565b604082019050919050565b60006020820190508181036000830152612ae981612aad565b9050919050565b7f4552433732313a206f70657261746f7220717565727920666f72206e6f6e657860008201527f697374656e7420746f6b656e0000000000000000000000000000000000000000602082015250565b6000612b4c602c83611fae565b9150612b5782612af0565b604082019050919050565b60006020820190508181036000830152612b7b81612b3f565b9050919050565b7f4552433732313a207472616e736665722066726f6d20696e636f72726563742060008201527f6f776e6572000000000000000000000000000000000000000000000000000000602082015250565b6000612bde602583611fae565b9150612be982612b82565b604082019050919050565b60006020820190508181036000830152612c0d81612bd1565b9050919050565b7f4552433732313a207472616e7366657220746f20746865207a65726f2061646460008201527f7265737300000000000000000000000000000000000000000000000000000000602082015250565b6000612c70602483611fae565b9150612c7b82612c14565b604082019050919050565b60006020820190508181036000830152612c9f81612c63565b9050919050565b7f4e487b7100000000000000000000000000000000000000000000000000000000600052601160045260246000fd5b6000612ce08261205e565b9150612ceb8361205e565b925082821015612cfe57612cfd612ca6565b5b828203905092915050565b6000612d148261205e565b9150612d1f8361205e565b9250827fffffffffffffffffffffffffffffffffffffffffffffffffffffffffffffffff03821115612d5457612d53612ca6565b5b828201905092915050565b7f4552433732313a20617070726f766520746f2063616c6c657200000000000000600082015250565b6000612d95601983611fae565b9150612da082612d5f565b602082019050919050565b60006020820190508181036000830152612dc481612d88565b9050919050565b7f4552433732313a207472616e7366657220746f206e6f6e20455243373231526560008201527f63656976657220696d706c656d656e7465720000000000000000000000000000602082015250565b6000612e27603283611fae565b9150612e3282612dcb565b604082019050919050565b60006020820190508181036000830152612e5681612e1a565b9050919050565b7f45524337323155524953746f726167653a2055524920717565727920666f722060008201527f6e6f6e6578697374656e7420746f6b656e000000000000000000000000000000602082015250565b6000612eb9603183611fae565b9150612ec482612e5d565b604082019050919050565b60006020820190508181036000830152612ee881612eac565b9050919050565b600081905092915050565b6000612f0582611fa3565b612f0f8185612eef565b9350612f1f818560208601611fbf565b80840191505092915050565b6000612f378285612efa565b9150612f438284612efa565b91508190509392505050565b7f45524337323155524953746f726167653a2055524920736574206f66206e6f6e60008201527f6578697374656e7420746f6b656e000000000000000000000000000000000000602082015250565b6000612fab602e83611fae565b9150612fb682612f4f565b604082019050919050565b60006020820190508181036000830152612fda81612f9e565b9050919050565b600081519050919050565b600082825260208201905092915050565b600061300882612fe1565b6130128185612fec565b9350613022818560208601611fbf565b61302b81611ff2565b840191505092915050565b600060808201905061304b60008301876120f3565b61305860208301866120f3565b6130656040830185612209565b81810360608301526130778184612ffd565b905095945050505050565b60008151905061309181611f14565b92915050565b6000602082840312156130ad576130ac611ede565b5b60006130bb84828501613082565b91505092915050565b7f4552433732314d657461646174613a2055524920717565727920666f72206e6f60008201527f6e6578697374656e7420746f6b656e0000000000000000000000000000000000602082015250565b6000613120602f83611fae565b915061312b826130c4565b604082019050919050565b6000602082019050818103600083015261314f81613113565b9050919050565b60006131618261205e565b91507fffffffffffffffffffffffffffffffffffffffffffffffffffffffffffffffff820361319357613192612ca6565b5b600182019050919050565b7f4e487b7100000000000000000000000000000000000000000000000000000000600052601260045260246000fd5b60006131d88261205e565b91506131e38361205e565b9250826131f3576131f261319e565b5b828204905092915050565b60006132098261205e565b91506132148361205e565b9250826132245761322361319e565b5b828206905092915050565b7f4e487b7100000000000000000000000000000000000000000000000000000000600052603260045260246000fd5b7f4552433732313a206d696e7420746f20746865207a65726f2061646472657373600082015250565b6000613294602083611fae565b915061329f8261325e565b602082019050919050565b600060208201905081810360008301526132c381613287565b9050919050565b7f4552433732313a20746f6b656e20616c7265616479206d696e74656400000000600082015250565b6000613300601c83611fae565b915061330b826132ca565b602082019050919050565b6000602082019050818103600083015261332f816132f3565b905091905056fea2646970667358221220765183c0eaf59227833fec13809ffc5d49a06056c13bb7fc560adf6cd0f9f5d464736f6c634300080d0033",
  "immutableReferences": {},
  "source": "// SPDX-License-Identifier: MIT\npragma solidity ^0.8.4;\n\nimport \"@openzeppelin/contracts/token/ERC721/ERC721.sol\";\nimport \"@openzeppelin/contracts/token/ERC721/extensions/ERC721URIStorage.sol\";\nimport \"@openzeppelin/contracts/token/ERC721/extensions/ERC721Burnable.sol\";\nimport \"@openzeppelin/contracts/access/Ownable.sol\";\nimport \"@openzeppelin/contracts/utils/Counters.sol\";\n\ncontract MyToken is ERC721, ERC721URIStorage, ERC721Burnable, Ownable {\n    using Counters for Counters.Counter;\n\n    Counters.Counter private _tokenIdCounter;\n\n    constructor() ERC721(\"MyToken\", \"MTK\") {}\n\n    function _baseURI() internal pure override returns (string memory) {\n        return \"ipfs://1241251258205\";\n    }\n\n    function safeMint(address to, string memory uri) public onlyOwner {\n        uint256 tokenId = _tokenIdCounter.current();\n        _tokenIdCounter.increment();\n        _safeMint(to, tokenId);\n        _setTokenURI(tokenId, uri);\n    }\n\n    // The following functions are overrides required by Solidity.\n\n    function _burn(uint256 tokenId) internal override(ERC721, ERC721URIStorage) {\n        super._burn(tokenId);\n    }\n\n    function tokenURI(uint256 tokenId)\n        public\n        view\n        override(ERC721, ERC721URIStorage)\n        returns (string memory)\n    {\n        return super.tokenURI(tokenId);\n    }\n}",
  "sourcePath": "/home/morais/Desktop/market/contracts/Example.sol",
  "compiler": {
    "name": "solc",
    "version": "0.8.13+commit.abaa5c0e.Emscripten.clang"
  },
  "schemaVersion": "3.4.7",
  "updatedAt": "2022-04-29T11:12:39.604Z",
  "networkType": "ethereum",
  "devdoc": {
    "kind": "dev",
    "methods": {
      "approve(address,uint256)": {
        "details": "See {IERC721-approve}."
      },
      "balanceOf(address)": {
        "details": "See {IERC721-balanceOf}."
      },
      "burn(uint256)": {
        "details": "Burns `tokenId`. See {ERC721-_burn}. Requirements: - The caller must own `tokenId` or be an approved operator."
      },
      "getApproved(uint256)": {
        "details": "See {IERC721-getApproved}."
      },
      "isApprovedForAll(address,address)": {
        "details": "See {IERC721-isApprovedForAll}."
      },
      "name()": {
        "details": "See {IERC721Metadata-name}."
      },
      "owner()": {
        "details": "Returns the address of the current owner."
      },
      "ownerOf(uint256)": {
        "details": "See {IERC721-ownerOf}."
      },
      "renounceOwnership()": {
        "details": "Leaves the contract without owner. It will not be possible to call `onlyOwner` functions anymore. Can only be called by the current owner. NOTE: Renouncing ownership will leave the contract without an owner, thereby removing any functionality that is only available to the owner."
      },
      "safeTransferFrom(address,address,uint256)": {
        "details": "See {IERC721-safeTransferFrom}."
      },
      "safeTransferFrom(address,address,uint256,bytes)": {
        "details": "See {IERC721-safeTransferFrom}."
      },
      "setApprovalForAll(address,bool)": {
        "details": "See {IERC721-setApprovalForAll}."
      },
      "supportsInterface(bytes4)": {
        "details": "See {IERC165-supportsInterface}."
      },
      "symbol()": {
        "details": "See {IERC721Metadata-symbol}."
      },
      "transferFrom(address,address,uint256)": {
        "details": "See {IERC721-transferFrom}."
      },
      "transferOwnership(address)": {
        "details": "Transfers ownership of the contract to a new account (`newOwner`). Can only be called by the current owner."
      }
    },
    "version": 1
  },
  "userdoc": {
    "kind": "user",
    "methods": {},
    "version": 1
  }
}